S01000004C45445F534551332E73726563C4
S11300000C942A000C9447000C9447000C9447006D
S11300100C9447000C9447000C9447000C94470040
S11300200C9447000C9447000C9447000C94470030
S11300300C9447000C9447000C9447000C94470020
S11300400C9447000C9447000C9447000C94470010
S11300500C94470011241FBECFE5D8E0DEBFCDBF0E
S113006010E0A0E6B0E0ECE4FEE002C005900D92E2
S1130070A036B107D9F710E0A0E6B0E001C01D92A8
S1130080AA36B107E1F70E942D010C9424070C94C1
S1130090000088E090E09093650080936400E2E6BD
S11300A0F0E01082118280E060E00E941A01109258
S11300B0600060E081E00E941E01609160006F5F5B
S11300C0609360006430B0F30895CF92DF92EF92B2
S11300D0FF920F931F93CF93DF930F92CDB7DEB7A9
S11300E082E390E0A0E0B0E0809366009093670024
S11300F0A0936800B093690082E381BB80E060E074
S1130100AE014F5F5F4F0E941201882311F5898170
S11301108130C1F4609161000E942A01882391F426
S1130120809161008F5F809361008981813051F4F7
S113013080E060E0AE014F5F5F4F0E941201898151
S11301408130B1F380916100843018F01092610025
S11301505FC010916100112309F45AC011508981C4
S1130160882381F112C0F601808181BBC7010E94FE
S11301704703C7010E94C60480E060E0AE014F5F00
S11301805F4F0E941201015039F411230CF440C056
S11301908981882329F03CC08981882321F3F5CF04
S11301A081E0612F0E942A01115080E060E0AE01DD
S11301B04F5F5F4F0E941201112354F189818823FC
S11301C079F326C08091660081BB0F2EF2E6EF2EF4
S11301D0F0E0FF2EF02DC7010E944703C7010E94E3
S11301E0C60480E060E0AE014F5F5F4F0E941201E1
S11301F003E10F2EF6E6CF2EF0E0DF2EF02D0F2ECA
S1130200FCEFEF2EFFEFFF2EF02DEC0CFD1CC4CF06
S11302100F90DF91CF911F910F91FF90EF90DF909E
S1130220CF9008954115510519F00E94AB0208952D
S113023081E0089540E00E943201089541E00E9467
S11302403201089541E00E94CD01089540E00E94EA
S1130250CD0108950E94680208950E9449000E94F9
S11302606500FDCF813059F1813038F0823009F4D6
S113027048C0833009F087C065C0442379F42AB3A9
S113028081E090E0AC0102C0440F551F6A95E2F78B
S1130290BA01609562236ABB80E00895413009F099
S11302A074C02AB381E090E0AC0102C0440F551F32
S11302B06A95E2F7BA01622B6ABB80E00895442391
S11302C079F427B381E090E0AC0102C0440F551FDC
S11302D06A95E2F7BA016095622367BB80E00895EE
S11302E0413009F054C027B381E090E0AC0102C072
S11302F0440F551F6A95E2F7BA01622B67BB80E091
S11303000895442379F424B381E090E0AC0102C061
S1130310440F551F6A95E2F7BA016095622364BBE6
S113032080E008954130A9F524B381E090E0AC0168
S113033002C0440F551F6A95E2F7BA01622B64BBF1
S113034080E00895442379F421B381E090E0AC0186
S113035002C0440F551F6A95E2F7BA016095622303
S113036061BB80E008954130B1F421B381E090E0B5
S1130370AC0102C0440F551F6A95E2F7BA01622B23
S113038061BB80E0089580E0089581E0089581E0F4
S1130390089581E0089581E00895813059F1813014
S11303A038F0823009F448C0833009F087C065C052
S11303B0442379F42BB381E090E0AC0102C0440FF4
S11303C0551F6A95E2F7BA01609562236BBB80E022
S11303D00895413009F074C02BB381E090E0AC0182
S11303E002C0440F551F6A95E2F7BA01622B6BBB3A
S11303F080E00895442379F428B381E090E0AC01CF
S113040002C0440F551F6A95E2F7BA016095622352
S113041068BB80E00895413009F054C028B381E0FE
S113042090E0AC0102C0440F551F6A95E2F7BA018F
S1130430622B68BB80E00895442379F425B381E0FE
S113044090E0AC0102C0440F551F6A95E2F7BA016F
S11304506095622365BB80E008954130A9F525B31A
S113046081E090E0AC0102C0440F551F6A95E2F7A9
S1130470BA01622B65BB80E00895442379F422B36A
S113048081E090E0AC0102C0440F551F6A95E2F789
S1130490BA016095622362BB80E008954130B1F4F3
S11304A022B381E090E0AC0102C0440F551F6A956D
S11304B0E2F7BA01622B62BB80E0089580E0089500
S11304C081E0089581E0089581E0089581E0089530
S11304D08130A9F0813028F08230F9F08330C9F5F9
S11304E02AC02BB381E090E0AC0102C0440F551F39
S11304F06A95E2F7BA0162276BBB80E0089528B3DE
S113050081E090E0AC0102C0440F551F6A95E2F708
S1130510BA01622768BB80E0089525B381E090E0CA
S1130520AC0102C0440F551F6A95E2F7BA01622775
S113053065BB80E0089522B381E090E0AC0102C085
S1130540440F551F6A95E2F7BA01622762BB80E047
S1130550089581E008958130F1F0813030F08230E7
S113056081F1833009F059C042C089B321E030E001
S1130570062E02C0220F331F0A94E2F790E0822372
S113058093239C0102C0359527956A95E2F7FA01F9
S1130590208380E0089586B321E030E0062E02C077
S11305A0220F331F0A94E2F790E0822393239C01E5
S11305B002C0359527956A95E2F7FA01208380E019
S11305C0089583B321E030E0062E02C0220F331FCA
S11305D00A94E2F790E0822393239C0102C03595AC
S11305E027956A95E2F7FA01208380E0089580B3A5
S11305F021E030E0062E02C0220F331F0A94E2F7F6
S113060090E0822393239C0102C0359527956A9537
S1130610E2F7FA01208380E0089581E00895FC0167
S11306209081992349F58181882341F483B78F7B95
S113063083BF83B7877F83BF80E00895813041F40F
S113064083B78F7B83BF83B7886083BF80E00895BF
S1130650823041F483B7806483BF83B7886083BFEB
S113066080E00895833079F483B7806483BF83B7CF
S1130670877F83BF80E00895913039F081E0923024
S113068029F480E0089581E0089580E008952F9290
S11306903F924F925F926F927F928F929F92AF920E
S11306A0BF92CF92DF92EF92FF920F931F93CF935B
S11306B0DF9300D000D0CDB7DEB78C01FC0164819C
S11306C075818681978128EE33E040E050E00E94F6
S11306D0E3066B017C01F801648375838683978349
S11306E08081882309F019C18181882309F00DC113
S11306F06281738180E090E00E94CE0520E030E0CA
S113070040E05EE30E948006362E272E89839A837A
S1130710382F292F862F922DA32FB22FBC01CD0164
S113072020E030E040E853E40E948006762E672EF5
S1130730582E492EC701B6010E94CE056B017C01DB
S1130740872C962CA52CB42CA50194010E94360567
S11307501816ACF0872D962DA52DB42DBC01CD0116
S1130760A70196010E94D10439812A81C32CD22C7D
S1130770E32EF22EA70196010E943A0533C0C70169
S1130780B601872C962CA52CB42CA50194010E94AB
S11307903A050E94A205DC01CB019C838B83C7012F
S11307A0B60139812A81C32CD22CE32EF22EA70163
S11307B096010E943A056B017C012B813C81B901B1
S11307C080E090E00E94CE059B01AC01C701B60118
S11307D00E943A059B01AC0160E070E080E893E47C
S11307E00E94D104382F292F862F972FA32FB22FA1
S11307F0BC01CD010E94A20562BFF8016281738130
S113080080E090E00E94CE056B017C0120E030E0A6
S113081040E85FE30E943605882359F483B781607A
S113082083BF83B78D7F83BF83B78B7F83BFFF2451
S11308302CC0C701B60120E030E040E051E40E9442
S11308403605882359F483B78E7F83BF83B78260CC
S113085083BF83B78B7F83BFFF2417C0C701B60153
S113086020E030E040E852E40E943605882399F401
S113087083B7816083BF83B7826083BF83B78B7F75
S113088083BFFF2402C0FF24F3942B813C812115F4
S1130890310559F553C0C701B60120E030E040E806
S11308A053E40E943605882359F483B78E7F83BFAF
S11308B083B78D7F83BF83B7846083BFFF24E5CF75
S11308C0C701B60120E030E040E854E40E94360558
S11308D08823C9F683B7816083BF83B78D7F83BFC5
S11308E083B7846083BFFF24D0CF08B600FEFDCF5A
S11308F08B819C8101979C838B8388B7816088BF9F
S1130900EB81FC81309789F719C0813061F0823026
S113091061F0833061F4FF2411C0813059F08230DA
S113092059F4FF240BC0FF2409C0FF2407C0FF248F
S1130930F39404C0FF2402C0FF24F394F8016481FB
S113094075818681978128EE33E040E050E00E9473
S11309500207F80124833583468357838F2D0F9034
S11309600F900F900F90DF91CF911F910F91FF90F7
S1130970EF90DF90CF90BF90AF909F908F907F903B
S11309806F905F904F903F902F90089583B78E7F24
S113099083BF83B78D7F83BF83B78B7F83BF80E0A3
S11309A008955058BB27AA270ED070C161D130F0EA
S11309B066D120F031F49F3F11F41EF456C10EF4B9
S11309C0E095E7FB4CC1E92F72D180F3BA176207B7
S11309D073078407950718F071F49EF58AC10EF425
S11309E0E0950B2EBA2FA02D0B01B90190010C013B
S11309F0CA01A0011124FF27591B99F0593F50F453
S1130A00503E68F11A16F040A22F232F342F4427AA
S1130A10585FF3CF469537952795A795F0405395A2
S1130A20C9F77EF41F16BA0B620B730B840BBAF072
S1130A309150A1F0FF0FBB1F661F771F881FC2F7DD
S1130A400EC0BA0F621F731F841F48F487957795F1
S1130A506795B795F7959E3F08F0B3CF9395880FA8
S1130A6008F09927EE0F979587950895D4D008F448
S1130A7081E008950CD00AC102D140F0F9D030F0E1
S1130A8021F45F3F19F0EBC0511134C1EEC00FD116
S1130A9098F39923C9F35523B1F3951B550BBB2741
S1130AA0AA2762177307840738F09F5F5F4F220FEE
S1130AB0331F441FAA1FA9F333D00E2E3AF0E0E8E7
S1130AC030D091505040E695001CCAF729D0FE2F33
S1130AD027D0660F771F881FBB1F261737074807C5
S1130AE0AB07B0E809F0BB0B802DBF01FF2793587B
S1130AF05F4F2AF09E3F510568F0B1C0FBC05F3FD5
S1130B00ECF3983EDCF3869577956795B795F79562
S1130B109F5FC9F7880F911D9695879597F908955A
S1130B20E1E0660F771F881FBB1F621773078407F6
S1130B30BA0720F0621B730B840BBA0BEE1F88F705
S1130B40E0950895BCD088F09F5790F0B92F99276D
S1130B50B751A0F0D1F0660F771F881F991F1AF0C4
S1130B60BA95C9F712C0B13081F0C3D0B1E008958D
S1130B70C0C0672F782F8827B85F39F0B93FCCF30E
S1130B80869577956795B395D9F73EF490958095BA
S1130B90709561957F4F8F4F9F4F0895E89409C0DA
S1130BA097FB3EF490958095709561957F4F8F4F9C
S1130BB09F4F9923A9F0F92F96E9BB279395F695B2
S1130BC0879577956795B795F111F8CFFAF4BB0F30
S1130BD011F460FF1BC06F5F7F4F8F4F9F4F16C094
S1130BE0882311F096E911C0772321F09EE8872F1E
S1130BF0762F05C0662371F096E8862F70E060E0DA
S1130C002AF09A95660F771F881FDAF7880F969552
S1130C10879597F90895990F0008550FAA0BE0E8F6
S1130C20FEEF16161706E807F907C0F012161306AA
S1130C30E407F50798F0621B730B840B950B39F4EA
S1130C400A2661F0232B242B252B21F408950A2650
S1130C5009F4A140A6958FEF811D811D089597F990
S1130C609F6780E870E060E008959FEF80EC08954E
S1130C7000240A9416161706180609060895002477
S1130C800A9412161306140605060895092E0394F1
S1130C90000C11F4882352F0BB0F40F4BF2B11F465
S1130CA060FF04C06F5F7F4F8F4F9F4F089557FDC4
S1130CB09058440F551F59F05F3F71F04795880FC6
S1130CC097FB991F61F09F3F79F08795089512165D
S1130CD013061406551FF2CF4695F1DF08C0161609
S1130CE017061806991FF1CF8695710561050894BA
S1130CF00895E894BB2766277727CB0197F90895D1
S1130D000BD0C4CFB5DF28F0BADF18F0952309F073
S1130D10A6CFABCF1124EECFCADFA0F3959FD1F3BA
S1130D20950F50E0551F629FF001729FBB27F00D95
S1130D30B11D639FAA27F00DB11DAA1F649F6627EA
S1130D40B00DA11D661F829F2227B00DA11D621F39
S1130D50739FB00DA11D621F839FA00D611D221FF3
S1130D60749F3327A00D611D231F849F600D211DD7
S1130D70822F762F6A2F11249F5750408AF0E1F07A
S1130D8088234AF0EE0FFF1FBB1F661F771F881FC3
S1130D9091505040A9F79E3F510570F060CFAACF03
S1130DA05F3FECF3983EDCF3869577956795B795AE
S1130DB0F795E7959F5FC1F7FE2B880F911D9695D8
S1130DC0879597F90895629FD001739FF001829FE0
S1130DD0E00DF11D649FE00DF11D929FF00D839FC6
S1130DE0F00D749FF00D659FF00D9927729FB00D63
S1130DF0E11DF91F639FB00DE11DF91FBD01CF0176
S1130E0011240895A1E21A2EAA1BBB1BFD010DC0DB
S1130E10AA1FBB1FEE1FFF1FA217B307E407F507A6
S1130E2020F0A21BB30BE40BF50B661F771F881F82
S1130E30991F1A9469F760957095809590959B0118
S10F0E40AC01BD01CF010895F894FFCF70
S9030000FC
