S01000004C45445F534551312E73726563C6
S11300000C942A000C94EA020C94F4020C94FE0260
S11300100C9447000C9447000C9447000C94470040
S11300200C9447000C9447000C9447000C94470030
S11300300C9447000C9447000C9447000C94470020
S11300400C9447000C9447000C9447000C94470010
S11300500C94470011241FBECFE5D8E0DEBFCDBF0E
S113006010E0A0E6B0E0E4E1F6E002C005900D92F5
S1130070A036B107D9F710E0A0E6B0E001C01D92A8
S1130080A236B107E1F70E94CD000C9408030C944A
S11300900000809160008F5F80936000893019F4C4
S11300A081E08093600008951F93CF93DF9300D085
S11300B0CDB7DEB719821A8210E081E0612F0E9469
S11300C0BE001F5F1430C9F70E94AF02CE01019633
S11300D00E94B70283E062E00E94BA0080E069E413
S11300E070E00E94E9020F900F90DF91CF911F9171
S11300F0089580916000813021F460E00E94C20084
S11301000895823029F481E061E00E94C2000895DC
S1130110833029F481E062E00E94C20008958430B3
S113012029F481E063E00E94C2000895853029F437
S113013081E060E00E94C6000895863029F481E0E1
S113014061E00E94C6000895873029F481E062E0EE
S11301500E94C6000895883021F481E063E00E9483
S1130160C60008954115510519F00E944B020895E7
S113017081E0089540E00E94D200089541E00E9489
S1130180D200089541E00E946D01089540E00E946C
S11301906D0108950E94080208950E9454000E946F
S11301A07900FDCF813059F1813038F0823009F483
S11301B048C0833009F087C065C0442379F42AB36A
S11301C081E090E0AC0102C0440F551F6A95E2F74C
S11301D0BA01609562236ABB80E00895413009F05A
S11301E074C02AB381E090E0AC0102C0440F551FF3
S11301F06A95E2F7BA01622B6ABB80E00895442352
S113020079F427B381E090E0AC0102C0440F551F9C
S11302106A95E2F7BA016095622367BB80E00895AE
S1130220413009F054C027B381E090E0AC0102C032
S1130230440F551F6A95E2F7BA01622B67BB80E051
S11302400895442379F424B381E090E0AC0102C022
S1130250440F551F6A95E2F7BA016095622364BBA7
S113026080E008954130A9F524B381E090E0AC0129
S113027002C0440F551F6A95E2F7BA01622B64BBB2
S113028080E00895442379F421B381E090E0AC0147
S113029002C0440F551F6A95E2F7BA0160956223C4
S11302A061BB80E008954130B1F421B381E090E076
S11302B0AC0102C0440F551F6A95E2F7BA01622BE4
S11302C061BB80E0089580E0089581E0089581E0B5
S11302D0089581E0089581E00895813059F18130D5
S11302E038F0823009F448C0833009F087C065C013
S11302F0442379F42BB381E090E0AC0102C0440FB5
S1130300551F6A95E2F7BA01609562236BBB80E0E2
S11303100895413009F074C02BB381E090E0AC0142
S113032002C0440F551F6A95E2F7BA01622B6BBBFA
S113033080E00895442379F428B381E090E0AC018F
S113034002C0440F551F6A95E2F7BA016095622313
S113035068BB80E00895413009F054C028B381E0BF
S113036090E0AC0102C0440F551F6A95E2F7BA0150
S1130370622B68BB80E00895442379F425B381E0BF
S113038090E0AC0102C0440F551F6A95E2F7BA0130
S11303906095622365BB80E008954130A9F525B3DB
S11303A081E090E0AC0102C0440F551F6A95E2F76A
S11303B0BA01622B65BB80E00895442379F422B32B
S11303C081E090E0AC0102C0440F551F6A95E2F74A
S11303D0BA016095622362BB80E008954130B1F4B4
S11303E022B381E090E0AC0102C0440F551F6A952E
S11303F0E2F7BA01622B62BB80E0089580E00895C1
S113040081E0089581E0089581E0089581E00895F0
S11304108130A9F0813028F08230F9F08330C9F5B9
S11304202AC02BB381E090E0AC0102C0440F551FF9
S11304306A95E2F7BA0162276BBB80E0089528B39E
S113044081E090E0AC0102C0440F551F6A95E2F7C9
S1130450BA01622768BB80E0089525B381E090E08B
S1130460AC0102C0440F551F6A95E2F7BA01622736
S113047065BB80E0089522B381E090E0AC0102C046
S1130480440F551F6A95E2F7BA01622762BB80E008
S1130490089581E008958130F1F0813030F08230A8
S11304A081F1833009F059C042C089B321E030E0C2
S11304B0062E02C0220F331F0A94E2F790E0822333
S11304C093239C0102C0359527956A95E2F7FA01BA
S11304D0208380E0089586B321E030E0062E02C038
S11304E0220F331F0A94E2F790E0822393239C01A6
S11304F002C0359527956A95E2F7FA01208380E0DA
S1130500089583B321E030E0062E02C0220F331F8A
S11305100A94E2F790E0822393239C0102C035956C
S113052027956A95E2F7FA01208380E0089580B365
S113053021E030E0062E02C0220F331F0A94E2F7B6
S113054090E0822393239C0102C0359527956A95F8
S1130550E2F7FA01208380E0089581E008958FB7DF
S113056080688FBF08958FB78F778FBF0895FC0180
S113057080818823B1F48181882339F485B782602E
S113058085BF85B7816085BF08C0813031F485B7E8
S1130590826085BF85B78E7F85BF8BB780648BBF34
S11305A008958130A9F48181882339F485B7846062
S11305B085BF85B7886085BF08C0813031F485B7B1
S11305C08B7F85BF85B7886085BF8BB780688BBFFD
S11305D0089508951F920F920FB60F9211240F9051
S11305E00FBE0F901F9018951F920F920FB60F9287
S11305F011240F900FBE0F901F9018951F920F9209
S11306000FB60F9211240F900FBE0F901F901895E4
S1070610F894FFCF88
S9030000FC
