S01000004C45445F534551312E73726563C6
S11300000C942A000C9447000C9447000C9447006D
S11300100C9447000C9447000C9447000C94470040
S11300200C9447000C9447000C9447000C94470030
S11300300C9447000C9447000C9447000C94470020
S11300400C9447000C9447000C9447000C94470010
S11300500C94470011241FBECFE5D8E0DEBFCDBF0E
S113006010E0A0E6B0E0E4E1F5E002C005900D92F6
S1130070A036B107D9F710E0A0E6B0E001C01D92A8
S1130080A136B107E1F70E94A6000C9488020C94F3
S11300900000CF9380E060E00E949300C0E081E024
S11300A06C2F0E949700CF5FC430C9F7CF91089599
S11300B0CF93DF930F92CDB7DEB780E060E0AE015F
S11300C04F5F5F4F0E948B00882309F5898181303F
S11300D0C1F4609160000E94A300882391F4809190
S11300E060008F5F809360008981813051F480E0EB
S11300F060E0AE014F5F5F4F0E948B0089818130C9
S1130100B1F380916000843010F0109260000F9081
S1130110DF91CF9108954115510519F00E942402F1
S1130120089581E0089540E00E94AB00089541E005
S11301300E94AB00089541E00E944601089540E00A
S11301400E94460108950E94E10108950E94490019
S11301500E945800FDCF813059F1813038F082304F
S113016009F448C0833009F087C065C0442379F49A
S11301702AB381E090E0AC0102C0440F551F6A9598
S1130180E2F7BA01609562236ABB80E008954130CA
S113019009F074C02AB381E090E0AC0102C0440FBE
S11301A0551F6A95E2F7BA01622B6ABB80E0089595
S11301B0442379F427B381E090E0AC0102C0440FFA
S11301C0551F6A95E2F7BA016095622367BB80E028
S11301D00895413009F054C027B381E090E0AC01A8
S11301E002C0440F551F6A95E2F7BA01622B67BB40
S11301F080E00895442379F424B381E090E0AC01D5
S113020002C0440F551F6A95E2F7BA016095622354
S113021064BB80E008954130A9F524B381E090E007
S1130220AC0102C0440F551F6A95E2F7BA01622B74
S113023064BB80E00895442379F421B381E090E025
S1130240AC0102C0440F551F6A95E2F7BA016095EC
S1130250622361BB80E008954130B1F421B381E0B1
S113026090E0AC0102C0440F551F6A95E2F7BA0151
S1130270622B61BB80E0089580E0089581E00895D9
S113028081E0089581E0089581E00895813059F175
S1130290813038F0823009F448C0833009F087C0D7
S11302A065C0442379F42BB381E090E0AC0102C033
S11302B0440F551F6A95E2F7BA01609562236BBB40
S11302C080E00895413009F074C02BB381E090E0E0
S11302D0AC0102C0440F551F6A95E2F7BA01622BC4
S11302E06BBB80E00895442379F428B381E090E067
S11302F0AC0102C0440F551F6A95E2F7BA0160953C
S1130300622368BB80E00895413009F054C028B3EB
S113031081E090E0AC0102C0440F551F6A95E2F7FA
S1130320BA01622B68BB80E00895442379F425B3B5
S113033081E090E0AC0102C0440F551F6A95E2F7DA
S1130340BA016095622365BB80E008954130A9F548
S113035025B381E090E0AC0102C0440F551F6A95BB
S1130360E2F7BA01622B65BB80E00895442379F477
S113037022B381E090E0AC0102C0440F551F6A959E
S1130380E2F7BA016095622362BB80E008954130D0
S1130390B1F422B381E090E0AC0102C0440F551FD8
S11303A06A95E2F7BA01622B62BB80E0089580E0AF
S11303B0089581E0089581E0089581E0089581E041
S11303C008958130A9F0813028F08230F9F083302B
S11303D0C9F52AC02BB381E090E0AC0102C0440F00
S11303E0551F6A95E2F7BA0162276BBB80E0089556
S11303F028B381E090E0AC0102C0440F551F6A9518
S1130400E2F7BA01622768BB80E0089525B381E072
S113041090E0AC0102C0440F551F6A95E2F7BA019F
S1130420622765BB80E0089522B381E090E0AC01CF
S113043002C0440F551F6A95E2F7BA01622762BBF6
S113044080E0089581E008958130F1F0813030F04A
S1130450823081F1833009F059C042C089B321E070
S113046030E0062E02C0220F331F0A94E2F790E018
S1130470822393239C0102C0359527956A95E2F760
S1130480FA01208380E0089586B321E030E0062E4F
S113049002C0220F331F0A94E2F790E082239323D1
S11304A09C0102C0359527956A95E2F7FA012083ED
S11304B080E0089583B321E030E0062E02C0220FCD
S11304C0331F0A94E2F790E0822393239C0102C035
S11304D0359527956A95E2F7FA01208380E008951F
S11304E080B321E030E0062E02C0220F331F0A94AD
S11304F0E2F790E0822393239C0102C0359527956F
S11305006A95E2F7FA01208380E0089581E0089576
S1070510F894FFCF89
S9030000FC
